S039000032363031425F626F6F746C6F616465722D73746F726167652D696E7465726E616C2D73696E676C652D313533366B2D6372632E733337FF
S3150800000008100020FD01000825200008FF20000830
S31508000010252000082520000825200008252000089E
S315080000202520000825200008A82600082520000805
S3150800003025200008F02600082520000825200008AD
S31508000040252000082520000825200008252000086E
S31508000050252000082520000825200008252000085E
S31508000060252000082520000825200008252000084E
S31508000070252000082520000825200008252000083E
S31508000080252000082520000825200008252000082E
S31508000090252000082520000825200008252000081E
S315080000A0252000082520000825200008252000080E
S315080000B025200008252000082520000825200008FE
S315080000C025200008252000082520000825200008EE
S315080000D025200008252000082520000825200008DE
S315080000E025200008252000082520000825200008CE
S315080000F025200008252000082520000825200008BE
S3150800010025200008252000082520000825200008AD
S31508000110252000082520000825200008252000089D
S31508000120252000082520000825200008252000088D
S31508000130252000082520000825200008252000087D
S31508000140252000082520000825200008252000086D
S31508000150252000082520000825200008252000085D
S31508000160252000082520000825200008252000084D
S3150800017010B5054C237833B9044B13B1044800E095
S3150800018000BF0123237010BD1810002000000000D6
S31508000190A428000808B5034B1BB10349034800E02F
S315080001A000BF08BD000000001C100020A42800089D
S315080001B0064B0748DA1C121AC11E22F0030299429E
S315080001C088BF0022034902F044BA00BF1810002075
S315080001D010100020B0280008064B0748DA1C121A2F
S315080001E0C11E22F00302994288BF0022002102F0B4
S315080001F03DBA00BF341000201810002008B5084B7F
S3150800020083F30A88074B084AC3E9002200F00EF870
S3150800021000F010FAFFF7CCFFFFF7DEFF00F0C2F997
S315080002200800002008100020A5EDF5FE044B054A3D
S315080002309A60D3F8882042F47002C3F88820704781
S3150800024000ED00E0000000081FB500F1006303F5AB
S3150800025000430393104B144698421BD8039A0F4B3E
S315080002609A4217D2039A9B1AA34213D358B94FF04E
S3150800027000639B6A0A4A5869904204D91869019131
S3150800028000F09EFA01992246039804B0BDE8104092
S3150800029001F0D2BE04B010BDFF7FFFF700E01708DB
S315080002A0008000087FB56FF0006200F17841914246
S315080002B003461AD26D460E4A02F110062C461068FD
S315080002C05168083203C4B2422546F7D15A1E0DF1C9
S315080002D00F010F3311F8010912F8014F844204D1B6
S315080002E09A42F7D1012004B070BD0020FBE700BF99
S315080002F0942600082DE9F0410368044603F160439B
S31508000300B3F5802FA0B034D84FF000639B6A4268DB
S315080003101E6996422DD8394B9A422AD8456B06F162
S315080003204002AA4268D89D4266D82846FFF7BAFF17
S31508000330002861D0284601F0B2FE80B16B6973B11E
S31508000340022B0FD1AB69C4F1040119444FF0FF32F7
S31508000350204600F0B3FE2A4BC31A5842584120B033
S31508000360BDE8F08140F2046328460493FFF79AFF3C
S3150800037008B90020F3E7284601F091FE0028F8D0D6
S315080003804FF00067D7F834804046FFF78BFF002808
S31508000390EFD0503EB045ECD8284605A901F086FEB8
S315080003A00028E6D0BA6A059B12699A42E1D89C42AF
S315080003B0DFD8124A9342DCD806A800F041FF059A16
S315080003C02146121B06A801F0C4FF06A801F0C3FFC8
S315080003D0059C00F045FF039000F060FF2146009061
S315080003E0039B04F1200206A800F0AAFE04900498D4
S315080003F0B0FA80F04009B2E70120B0E7000018081B
S31508000400E320BBDE70B54FF0FF3290B005460C46D0
S3150800041000F054FE1C4B984232D14FF480621B4BBD
S3150800042000219A6601A81C2202F020F9184B2946D9
S315080004306846043C009302F0B6F82146684602F086
S31508000440B2F8684602F0B8F801F0EDFD0646B8B90C
S3150800045040F2022000F060F91C22314609A802F099
S3150800046005F90C4B294608A8089302F09CF808A839
S31508000470214602F098F808A802F09EF801F0D3FD8C
S31508000480002010B070BD00BFE320BBDE0090004026
S3150800049001000543010006434FF4806230B5044667
S315080004A0154B91B09A6600211C2201A802F0DEF8CD
S315080004B0124B21466846009302F075F8684602F02A
S315080004C07BF801F0B0FD054698B940F2022000F02D
S315080004D023F91C22294609A802F0C8F8084B08A8DF
S315080004E02146089302F05FF808A802F065F801F0C3
S315080004F09AFD002011B030BD009000400000024374
S31508000500000003434FF4806210B50F4B8CB00446CD
S315080005109A6600211C2205A802F0A8F80B4B019444
S315080005200493012302930A4B01A904A8039302F03A
S3150800053030F804A802F040F801F075FDB0FA80F032
S3150800054040090CB010BD00BF0090004000000843F1
S3150800055004000020004870470080000838B50C46A3
S31508000560054680B179B100230B60074B036001F0A3
S31508000570DCFF01301EBF2B6843F4C0432B602368A1
S3150800058043F40023236038BD0C120008044B1846B8
S31508000590016881F3088881F3098840688746FEE781
S315080005A0006000084FF04023D3F8842013B51106E5
S315080005B006D44FF400621A67D3F88420D206FBD417
S315080005C001F099FD00F09AF808B900F07FF801F0FB
S315080005D015FF044658B900F091F808B100F086F8FE
S315080005E040F2012000F0C2F84FF4017018E000F064
S315080005F085F808B900F072F800F09AF8012802D9CF
S3150800060000F064F8FEE700F09FF8094B0193019BA0
S31508000610002B0ADC40F205439C42E5D140F2032058
S3150800062000F0A4F8002002B010BD019B013BEDE7E5
S3150800063000350C0013B501244FF040238DF8064011
S315080006408DF80740D3F894305B0610D500F0A2F871
S31508000650A0F2022080B2072809D804FA00F010F0A8
S31508000660C90F1EBF00238DF806308DF80730154BCD
S315080006705B68013308D14FF4027000F04DF800238F
S315080006808DF806308DF807309DF807305BB10D48B8
S31508000690FFF730FE8DF806009DF806301BB94FF4BB
S315080006A0027000F039F89DF806304BB100F026F8D4
S315080006B008B100F01BF80348034B9860FFF766FF84
S315080006C002B010BD0060000800ED00E04CF23C32BC
S315080006D0014B5A80704700BF000000204AF6C0321E
S315080006E0014B5A80704700BF000000204FF20F02EE
S315080006F0014B5A80704700BF000000204AF6C03000
S31508000700044B5B8823F00F039BB21B1A58425841CF
S31508000710704700BF00000020044A08B51080FFF7A4
S31508000720EDFF10B94FF20F03538008BD00000020FB
S3150800073008B5FFF7E3FF18B1024B588800F00F0021
S3150800074008BD00BF0000002008B5FFF7D7FF48B175
S31508000750054A538803F00F010F2914BF013323F00C
S315080007600F03538008BD00BF0000002008B5FFF73F
S31508000770D3FFBFF34F8F0549054BCA6802F4E06201
S315080007801343CB60BFF34F8F00BFFDE700ED00E0DA
S315080007900400FA054FF20F01084B5A888A4201D124
S315080007A0188870473AB91B8840F20220012B18BFF7
S315080007B04FF4007070474FF4007070470000002037
S315080007C04FF4803208B5044B9A6601F0FDF9B0FA89
S315080007D080F0400908BD00BF00900040072BF8B51F
S315080007E006460F4614461D4601D90020F8BD0121CC
S315080007F0202001F079F90121212001F075F98CB149
S3150800080044EA06039B07F0D14FF48032064B314683
S315080008109A66284623463A4601F03AFAB0FA80F034
S315080008204009E3E70120E1E700900040134610B5D0
S3150800083062B103439B070BD14FF48034054B9C668A
S3150800084001F0EAF9B0FA80F0400910BD0120FCE792
S315080008500020FAE70090004030B500220C24064B31
S3150800086004FB02F1CD58854201D1581830BD01323A
S315080008700C2AF5D10020F9E740270008002370B5B7
S3150800088086B0CDE9013308231546009304AA044629
S3150800089001F0CDFC41F20302904206464FF00803F0
S315080008A023D194F8432052B11A46E06C04A901F00A
S315080008B050FD04AA08231146A06C01F039FD059ADB
S315080008C0049B6A6094F843202B6052B9084A934205
S315080008D007D0084A934204D00822E06C04A901F024
S315080008E038FD6B68236500236365304606B070BD26
S315080008F0F70A0AF7FC0404FC2DE9F743044658688E
S315080009000E4617469846002841D08B0742D14FF02D
S3150800091000639B6A206E1B6902EB000C1D1D654572
S315080009201CD81C33984219D28542294638BF01463D
S315080009309C4594BFC1EB0C02C1EB0302081AC5F132
S31508000940680506EB0009681820444946019201F03B
S3150800095080FEFF214846019A01F088FE226E0F4B61
S315080009609A420AD80E49B818884206D39B1AF258F2
S31508000970C4F880204FF0FF32F2503A46D8E90035E5
S31508000980206E3146A8470020226E3A44226603B0FC
S31508000990BDE8F08341F20200F9E700BF04800008D1
S315080009A0088000082DE9F04100254FF0FF3704467E
S315080009B08846164603F0200380F842301822FF21A5
S315080009C0C0E91855A0F8405080F84350A0F84450A4
S315080009D080F84650C0F88870683001F047FE8822D3
S315080009E02946C4E91286C4F88070C4F8847004F1F4
S315080009F0900001F03BFE074BC4F82071C4E9463568
S31508000A0084F8245116B1304600F01AFC0020BDE8DF
S31508000A10F08100BF000101012DE9F04FA7B098460B
S31508000A20CDE91323002304460E46309D1593159AE7
S31508000A30424501D30020CBE094F84630132BF7D873
S31508000A40DFE813F06000AE00A80048002F0016018A
S31508000A50DB012F00D3012F0080012F00D301C00234
S31508000A60340314000C016502650232034FF00009D5
S31508000A70636D0F2B00F292801023012716AACDE989
S31508000A80003720464023CDF8089013A901F0CFFB84
S31508000A9041F203030A900A9A9A4200F0D1800A9B0F
S31508000AA03CE04FF00109D4E91417B94276D9C91BBD
S31508000AB0DDE91472BF1A94F840200329174440F25E
S31508000AC0A081032F00F2A081204613A901F08EFB16
S31508000AD0002323E00127636D072B00F2D780082344
S31508000AE016AA009320464023CDE9017713A901F001
S31508000AF09EFB41F203030D900D9A9A4200F03A814B
S31508000B000D9B0BE016AA204613A9FFF7B7FE41F284
S31508000B1003020790079B934207D0079B069341F26F
S31508000B200303069A9A4282D051E0179A16992265CB
S31508000B3000226265A84A914240F02981022284F87F
S31508000B404620EBE70823012016AACDE900300297D4
S31508000B504023204613A901F06AFB41F203030890DB
S31508000B60089A9A4201D0089BD8E7169B03F07F4360
S31508000B70B3F1407F05D0132384F8463041F20903C8
S31508000B80CCE7179BD90706D594F8423043F0010302
S31508000B9084F842300027636D072BD3D9012329E156
S31508000BA0204616AA13A9FFF769FE41F20303099026
S31508000BB0099F9F420FD0099F41F203030697069AA1
S31508000BC09A423FF434AF069B0BB10023F3700698A4
S31508000BD027B0BDE8F08F1698FFF73EFE28B9132315
S31508000BE041F2080784F84630E6E7437994F8242169
S31508000BF09A4205D9132341F20E0784F84630DBE7FB
S31508000C00026876498A4205D00289D20748BF01336D
S31508000C1084F8243194F84230D9070DD5028994F81E
S31508000C204330920706D53BB1132341F2010784F8F6
S31508000C304630C1E7002BF7D0037984F84630BBE786
S31508000C40D4F848A000F048FB80230221CDE9000330
S31508000C5017AA3B46504600F049FA09E7226D0123D8
S31508000C60A265002284F84330E26584F84630DEE661
S31508000C7000213C2217A816914FF0010901F0F6FC55
S31508000C80D4E91432934204D884F8469041F2030317
S31508000C9044E7009316AA40232046CDE9019913A9F3
S31508000CA001F0C5FA41F203030B900B9A9A4201D060
S31508000CB00B9B33E716AF06F108030DF1700C3A46A5
S31508000CC003CA624518605960174603F10803F6D14E
S31508000CD010681860337843F001033370D0E733782F
S31508000CE043F004033370199BB36273785F0726D504
S31508000CF0EB238DF8583017238DF85930A6238DF835
S31508000D005A305E2300208DF85B30236D6066C4F888
S31508000D10843094F8453043F0020384F84530EF6890
S31508000D206FB104222B6816A9B847606E2B684A462D
S31508000D30EF6818A90830B847636E103363660B234B
S31508000D4084F84630636D072BA0D801234FF00809B5
S31508000D50CDE9013318AA38232046CDF8009013A907
S31508000D6001F065FA41F203030C900C9A9A42B6D048
S31508000D700C9BD3E6337843F002033370169B7360FB
S31508000D80236D083B7362179BB3F1006F05D01323DD
S31508000D9084F8463041F20103C0E6042384F846305D
S31508000DA094F8453043F0010384F845300023636620
S31508000DB091E6042316AA009320464023CDE901773D
S31508000DC013A901F034FA41F203030E900E9A9A42DF
S31508000DD006D00E9BA2E600BFEB17A603F90707F994
S31508000DE0236D042B02D9169B23660127636D032BFB
S31508000DF0DFD9092384F8463048E7002363660723CA
S31508000E0033E78F42FFF460AE402928BF40218F4266
S31508000E1028BF0F46032F88BF27F00307402316AACB
S31508000E202046CDE90199009713A901F000FA41F28D
S31508000E3003030F900F9A9A4201D00F9B6EE694F81F
S31508000E4046A0BAF1070F04D1D5F808B0BBF1000FD8
S31508000E501BD1042FC7F1040B88BF4FF0000B16AB4C
S31508000E605A46FF21D81901F001FCBAF1090FBB4413
S31508000E7014D12B465A46204616A9FFF73DFD0F907A
S31508000E800F9B002B3FF40FAED7E73A462B68606EF0
S31508000E9016A9D847626E3A44626604E6BAF1040FA8
S31508000EA021D1737898077FF5FEADEB68002B3FF4E8
S31508000EB0FAAD626E042A0BD80BEB0203062B07D990
S31508000EC017AB9B1A1A68C4F884204FF0FF321A60D1
S31508000ED05A462B68606EEF6816A9B847626E0BEB28
S31508000EE002076766DFE5BAF10B0F7FF4DCAD7378AE
S31508000EF059077FF5D8ADD5F80CA0BAF1000F3FF425
S31508000F00D2AD5A462B68606E16A9D047E6E74FF071
S31508000F1000618A6A496B1269503A91423FF63AAFC4
S31508000F20112B0FD194F81831002B7FF437AE41F20C
S31508000F3006031093109A9A4202D1132384F8463076
S31508000F40109BEBE594F84430002B7FF427AECDE9EF
S31508000F500133402316AA0093204613A901F067F926
S31508000F6041F203031090109A9A42E9D1E06C01F01D
S31508000F70F2F994F81831A3B104F1B403E06C0093C4
S31508000F801EAA04F1940316A900F0DAF81090109B33
S31508000F909BB10023F370132384F8463041F206030D
S31508000FA0BCE5E76C00F05CF9059000F077F9059B65
S31508000FB000901EAA384616A9E6E70123F37084F8BE
S31508000FC04430EBE500234FF00408CDE9013316AAB7
S31508000FD040232046CDF8008013A901F028F941F2F4
S31508000FE003031190119A9A4202D0119B0693EEE5DB
S31508000FF0D4F888202F4B9A4205D0132384F846301C
S3150800100041F20503F2E70123F37094F84530DA0755
S3150800101007D5EF682FB1424640462B6804F1840194
S31508001020B84794F845309B0707D5EF682FB10422D7
S315080010302B68104604F18401B847236E6BB36F68BA
S315080010405FB34FF0FF3304F18001042212A8129314
S31508001050059101F0EEFA20B104222B68059916488D
S31508001060B84704F168090422494612A801F0E1FAD2
S3150800107098B14FF000639B6A1422D3F8108004F1EC
S315080010806C0108F10800D5E90037B847D5E90037FB
S315080010900422494608EB0200B8470123B3700E2321
S315080010A084F846300023A1E70023F37041F20700D5
S315080010B08EE500BFE320BBDE0480000830B50824B7
S315080010C0094B00255C66012403F5FE235C60014498
S315080010D09D601A61DC60884201D1586A30BD10F8FB
S315080010E0012B1A62F7E700BF00900040F7B51646D5
S315080010F04FF480621D46114B04469A6620300F460F
S31508001100019001F077FADDE90812019801F076FA04
S31508001110002384F8587063643368C4F859307368D8
S31508001120C4F85D30B368C4F861302B0C6DBA84F826
S315080011306530A4F8665003B0F0BD00BF00900040CB
S315080011402DE9F04315464FF480621C46364B99B09C
S31508001150DDF880900E4607469A66002861D0002979
S315080011605FD0002D5DD0002C58D0304B304AB9F1F5
S31508001170000F14BF984690461C22002111A801F0C2
S3150800118075FA2C4B414610A8109301F00CFA202151
S3150800119010A801F008FA0122274B01940292039342
S315080011A0CDF810900592069354B1B9F1000F07D007
S315080011B001A910A801F0E3F904A910A801F0DFF9C4
S315080011C0079701271C4C07A910A80897099401F04E
S315080011D0D6F90AA910A80A960B970C940D950E979E
S315080011E00F9401F0CCF90DA910A801F0C8F910A8C0
S315080011F001F0E2F9114B00934FF098435A6CD20272
S31508001200FCD55B6D40F2046003F470230093009BE9
S31508001210002B08BF002019B0BDE8F083DFF8108066
S31508001220AAE740F20160F6E7009000401F2400801C
S315080012301F24FC8400000106200000207856341282
S315080012404FF4806210B50446044B9A6601F086F89E
S315080012502046BDE81040002101F084B80090004007
S315080012604FF4806200B50B4B91B09A66694600232D
S3150800127040224FF4807000F07BFDB0F5A02F07D018
S31508001280B0F5302F044818BF002011B05DF804FBF4
S315080012900148FAE7009000404CE317084FF48062D3
S315080012A000B50B4B91B09A666946002340224FF46D
S315080012B0807000F05DFDB0F5A02F07D0B0F5302F97
S315080012C0044818BF002011B05DF804FB0148FAE78E
S315080012D0009000406CE317080048704786E217083C
S315080012E02DE9F34799460A9B0C46196805463F2996
S315080012F0164642D85A68002A41D0224A002E14BF00
S31508001300B046904601F03F07091928BF5A68196088
S3150800131024BF01325A60AFB1C7F1400AA24521D8AD
S315080013202946524609EB070001F093F90123414685
S3150800133000934A463346002000F086F8B046403C03
S3150800134055443C443F2C0CD9A3092A4600934146F0
S315080013503346002000F078F824F03F031D4404F0DB
S315080013603F0400272CB12246294609EB070001F065
S3150800137070F9002002B0BDE8F0879046C2E7DFF8B2
S315080013800480BFE7D027000830B405460846114652
S315080013901A46DDE9023425B931B1029430BCFFF7AB
S315080013A09FBF024830BC70470846FBE780AFFFFF87
S315080013B02DE9F0411746146886B01E46E3008DF8FD
S315080013C00F30630952688DF80E30630B8DF80D30B7
S315080013D0630D8DF80C30D30003EB54738DF80B3086
S315080013E004F03F045309372C8DF80A304FEA52337C
S315080013F04FEA525205468DF80820884694BFC4F134
S315080014003802C4F17802CDE900178DF809300D4984
S3150800141003460020FFF7B8FF082143462A460097EF
S315080014200DEB0100FFF75CFF284605F1200350F895
S31508001430042B984246F8042BF9D1002006B0BDE8E3
S31508001440F08100BFF0270008F0B517464FF4806218
S315080014501D46254B93B00E469A6604462022002167
S315080014600AA801F003F901204FF0005201970290F3
S315080014700392049605900692079508900992002C07
S315080014802FD1189C194BA40121460AA80A9301F0EA
S315080014908AF803990AA80C430394069B04A943F007
S315080014A020030693099B43F02003099301F067F88C
S315080014B001A90AA801F063F807A90AA801F069F8C2
S315080014C00AA801F079F84FF098435A6CD202FCD575
S315080014D05B6D13F4702F0CBF00206FF06F0013B014
S315080014E0F0BD6FF07100FAE70090004000040103B8
S315080014F02DE9F041A2B0502204460D460EA800215F
S3150800150001F0B4F83422002101A801F0AFF801A8CF
S3150800151000F02EFA049B012B11D8002320466A1EE0
S315080015209D424FEA82024FF0FF0108BF1A4640F873
S31508001530043B01F09BF8002022B0BDE8F081AB42E5
S3150800154060D300F021F9059B0C220EA90646DF6838
S3150800155000F0B6FF0028EFD1DFF8B4800E9B4345B4
S3150800156015D1109A0EA9304600F0AAFF4FF0FF32A7
S3150800157010990EA8FFF7A2FD244B98422ED0FF2102
S315080015802046AA0001F072F840F20650D4E7374424
S315080015900C2238460EA900F093FF0028CCD10E9BEA
S315080015A0434507D0FF212046AA0001F05FF840F224
S315080015B00550C1E70EA93846109A00F081FF059B31
S315080015C03046D96800F0B3FF0028B5D13046109AE6
S315080015D00EA900F085FF0028C3D0ADE7109E11A91B
S315080015E0103EB608AE4228BF2E46B7003A462046F9
S315080015F001F02FF8AA1B9200B54238BF0022FF213E
S31508001600E01996E740F2045096E700BFE320BBDEF8
S3150800161039528FE144222DE9F043A3B00C468146A6
S3150800162000210DEB020001F021F8012350262E4A75
S315080016300021CDE90E2301A83422109601F016F8F0
S3150800164001A800F095F9049BA34249D3012B0AD8B7
S31508001650D9F8003040F204500133012B98BF00201E
S3150800166023B0BDE8F08300F08FF8102C28BF1024B3
S31508001670059B4FEA8408DF68424649460744054603
S3150800168011A800F0E6FFC4F110040EAB08F10C0037
S315080016901844FF21A20000F0E9FF4C214FF0FF3269
S315080016A00EA8FFF70BFDC043059B2190D968384665
S315080016B000F03DFF0028D3D1324638460EA900F087
S315080016C00FFF0028CCD1059B2846D96800F02FFFCC
S315080016D00028C5D1324628460EA900F001FFBFE70B
S315080016E040F20450BCE700BF39528FE110B5ADF5A2
S315080016F00E7D4FF40D72002001A900F0B2FE40F2F3
S315080017000124002101A800F07EFEA042F9D040F293
S31508001710032398421FD19DF8043059070CD49DF82D
S3150800172004309A071CD4DB0715D504998A9800F06B
S3150800173083F980B1002010E00B9800F0CCFC00285B
S31508001740EDD08A9800F036F90028E8D00D48FEF763
S31508001750A3FE0028E3D140F205400DF50E7D10BD2D
S315080017604FF00062926A029992689142DBD98A9890
S3150800177000F03EF90028EED00A990248FEF742FE2C
S31508001780E9E700BF008000080048704700000C0821
S3150800179031B10A4B5A68824205D80023C1E90033A1
S315080017A040F201407047013053F8302003EBC00087
S315080017B043680A6000204B60704700BF9428000801
S315080017C070B40C4611460E4A5568854211D9013047
S315080017D002EBC0056D68E618AE420ED8A5420CD3DA
S315080017E09D420AD352F830001A46204470BC00F0D5
S315080017F067BE40F2014070BC704740F20240FAE70B
S315080018009428000830B5CA681B4B04469A420D4610
S31508001810A3B019D1FEF79EFED4F82432174A013335
S3150800182052F83330D4F82C221344984208D3803324
S31508001830984209D241F20D03C4F8303223B030BDC4
S3150800184000F5C0309842F5D88023D4F82C1202AAA5
S31508001850D4F82402FFF7B4FF80232146009502AA94
S3150800186004F12C00FFF7D8F8D4F82C32C4F830026B
S315080018708033C4F82C32E1E74902000894280008AE
S3150800188070B50D46002186B00DF1070302931D4B76
S3150800189004461646116028461C22CDE903338DF806
S315080018A00710059300F0E2FED4F830322BBBD4E9DA
S315080018B08A21914207D2204602A9FFF7A3FF9DF885
S315080018C00730002BF0D02278910744BF6168316059
S315080018D0D20709D504F1080204F1240152F8040BD1
S315080018E08A4245F8040BF9D14BB9237840F20640F1
S315080018F0002B18BF002006B070BD0023E3E70020C8
S31508001900F9E700BF0124000870B40C4611460E4AD8
S315080019105568854211D9013002EBC0056D68E61895
S31508001920AE420ED8A5420CD39D420AD352F83000D7
S315080019301A46204470BC00F0D3BD40F2014070BC8A
S31508001940704740F20240FAE794280008074B5A68A5
S31508001950824207D9013003EBC002516853F83000C0
S3150800196000F0E5BD40F20140704700BF942800082A
S3150800197070B5054688B0C0B14FF4403200236C46B6
S31508001980C0E900230A4B05F114061A785B6802724F
S31508001990C360684600F082F80FCC0FC694E80F00C3
S315080019A086E80F0005F114032B6108B070BD00BF6F
S315080019B09428000800B5ADF5137D4FF40D7205A9FE
S315080019C000F04FFD78B904238DF81530074BCDE9A3
S315080019D00100039001A905A8049300F056FD0DF532
S315080019E0137D5DF804FB0020F9E700BF49020008F3
S315080019F04FF0006300B59B6AADF5137D9B688B427B
S31508001A0004D300200DF5137D5DF804FB4FF40D7229
S31508001A1005A900F026FD0028F3D102238DF815301C
S31508001A20044BCDE90100039001A905A8049300F031
S31508001A302CFDE7E74902000800B5ADF5137D4FF424
S31508001A400D7205A900F00DFD78B901238DF8153042
S31508001A50074B0190CDE90230049001A905A800F0D2
S31508001A6014FD0DF5137D5DF804FB0020F9E700BFB2
S31508001A707D200008B1F5C01F0BD800F17843B3F5F7
S31508001A80C01F06D80844044988428CBF002001209C
S31508001A9070470020704700BF0000180870B504465C
S31508001AA00646044D0FCD0FC495E80F0084E80F00D5
S31508001AB0304670BD742800084FF48032014B002070
S31508001AC09A66704700900040024BD86900F0010002
S31508001AD0704700BF000003404FF48032014B0020DE
S31508001AE09A66704700A00040430905D0012B0DD027
S31508001AF0022B094B18BF002300F01F0041B103F564
S31508001B008053012202FA00F018607047034BF3E78E
S31508001B1003F50053F5E700BF688000406480004085
S31508001B20F0B5114A114C124E00F00105E3695F0742
S31508001B3013D40DB9334213D103EA00078F4207D1F4
S31508001B400B4A1A40002A14BF6FF001000020F0BDAE
S31508001B50013AEBD16FF00200F9E74FF0FF30F6E7F4
S31508001B606FF00100F3E700BF80969800000003407D
S31508001B700200010070B5134C6061E3695B071ED46F
S31508001B800E4656F8043B8D18A361AE420BD10423CA
S31508001B90002121202361FFF7C3FF58B9BDE8704033
S31508001BA02120FFF7BDBF08210846FFF7B9FF10B18E
S31508001BB00423236170BD56F8043BA361E5E74FF0A3
S31508001BC0FF30F7E7000003404FF4803238B50E4B7C
S31508001BD00E4C9A66E56941F6713315400122E363B6
S31508001BE00B4B0021DA600223606121202361FFF795
S31508001BF097FF10B92120FFF793FF0122054BDA6002
S31508001C000DB10023E36338BD009000400000034097
S31508001C1000100340002003402DE9F84315464FF411
S31508001C208032184B89469A6603F51C33DF690646E7
S31508001C30174041F67132DA63012203F58053DFF863
S31508001C404C80DA6055B9284601220F4BDA601FB17D
S31508001C500022A3F50053DA63BDE8F88306F50054BD
S31508001C6004EA0804A41BAC4228BF2C46494622466F
S31508001C703046FFF77FFF0028E6D12644A1442D1BF6
S31508001C80E0E700BF009000400020034000E0FFFFAF
S31508001C902DE9F04F06464FF430250120B400DFF851
S31508001CA0C0C004F1402404F58024CCF80400656023
S31508001CB0302500244FF48037DFF8A8E0DFF8A89035
S31508001CC005FB06E5EC652C662C67234CDFF89CA023
S31508001CD0A76641F6713704F51C34D4F81C80E7630F
S31508001CE0E76800FA06F60743E7604BB9E26818F4B6
S31508001CF0803F22F00102E26000D0E363184628E044
S31508001D0001F5005000EA0900401A984228BF184613
S31508001D106161D4F81CB087081BF0040F17D1013F86
S31508001D203F0147F060576F66AA66C5F86CA0CCF805
S31508001D302460DEF834703E42FBD0084F01447E63CF
S31508001D400427CCF82860024427611B1ACDE74FF018
S31508001D50FF30BDE8F08F00BF00900040002004402F
S31508001D60001004400000044000E0FFFF1800034094
S31508001D70F0B507460F4D10488DB0002B08BF054635
S31508001D800E46144600211C2205A800F06FFC01230C
S31508001D9004A801A93D4344F0005401960495029312
S31508001DA0039400F0F6FB00F007FC00F0DFFB0DB033
S31508001DB0F0BD00BF01000AFF010008FF4FF4806272
S31508001DC0014B00209A667047009000404FF48062ED
S31508001DD0014B00209A66704700A000402DE9F041AB
S31508001DE004681E4624F04003802B0546884617469D
S31508001DF092B002D0B4F5807F43D11C2200210BA8F3
S31508001E0000F034FC224A234B0121B8F1010F18BF18
S31508001E1013460A932B1D0193E4081F4B44F0005404
S31508001E2002910AA8039404970591069307960891C8
S31508001E3001A9099300F0A3FB04A90AA800F09FFBD7
S31508001E4007A90AA800F0A5FB29680AA8C90800F08E
S31508001E50AAFB10210AA800F0A6FBFFF7AFFF98B966
S31508001E600AA800F0A9FB4FF098435A6CD202FCD599
S31508001E705C6DFFF7ABFF04F47024204612B0BDE892
S31508001E80F0816FF07100F9E74FF0FF30F6E700BF19
S31508001E900001010400010004100000202DE9F04FA4
S31508001EA09BB00746894698461646DDF894B072B147
S31508001EB015683B6823F04002802A03D0B3F5807F7B
S31508001EC040F0A6800BEB0903002400930DE01546AD
S31508001ED0EFE795B1249A1BF80430525D013553405B
S31508001EE0269A05F00F05135501344C45F1D3002EFB
S31508001EF000F091800020356067E0A9EB040ABAF18A
S31508001F000F0F57D91C22294613A800F0AFFB434BE5
S31508001F103A6812933B1D03930123D20842F00052FC
S31508001F20049305923E4A2699CDF818802AF00F0A9E
S31508001F3007930892CDF824800A930B920BEB0402C0
S31508001F400C9221444AF000520D9312A80E920F915A
S31508001F5003A91093119200F012FB06A912A800F02B
S31508001F600EFB0CA912A800F00AFB0FA912A800F094
S31508001F7010FB09A912A800F00CFB396812A8C908B9
S31508001F8000F011FB514612A800F00DFBFFF716FFF3
S31508001F90C8B912A800F010FB4FF098435A6CD20249
S31508001FA0FCD55B6D544403F470230193FFF70EFFD1
S31508001FB0019B5BBB269B0BEB040A1C44009B9A45C2
S31508001FC006D14C4691E74FF0FF301BB0BDE8F08FC5
S31508001FD08DB9424601213846249BFFF7FFFE0028AB
S31508001FE0F3D108F1100212F8013D0133DBB2137088
S31508001FF00BB99045F7D1249A1AF8013B525D013581
S31508002000534004F8013B05F00F05D7E71846DCE70F
S315080020106FF01F00D9E73046D7E700BF0303000477
S3150800202010000020FEE74FF098435A6CD202FCD508
S31508002030586D00F470207047C0F30C032DE9F04189
S3150800204005460F4616460BB9FEF7BAFB05F50054CA
S3150800205024F4FF5424F01F0405EB0608A04507D80E
S31508002060324639462846BDE8F0410223FEF7B6BB9C
S315080020702046FEF7A5FB04F50054EFE770B44FF0D1
S315080020800065AD6A03462E69864206D86C69134414
S315080020909C4202D370BCFFF7CFBF70BC7047036980
S315080020A013F0FE0F0CBF01200020704738B5044618
S315080020B00D46FEF7F7F848B16369012B09D12046AA
S315080020C0FFF7EDFF08B1A3692B6038BD01202C602E
S315080020D0FBE70020F9E74FF0FF3313B5044601A8E4
S315080020E00193FEF70FFA20B1019BA3422CBF0020F3
S315080020F0012002B010BDFFF7DFBCFFF7EDBC4FF4BF
S315080021000170FEF733BBB1F50D7F10B504460FD34A
S315080021104FF40D72002100F0A9FA04F5DE7204F5F9
S31508002120AA7104F12C000023BDE81040FEF73ABC62
S3150800213040F2052010BD13B50446009101462C3027
S31508002140FEF76AFCC4F8300218B141F20703984258
S3150800215009D1A3784BB140F2032040F20223E2787A
S31508002160002A08BF184602B010BD40F20120FAE75F
S315080021702DE9F04387B00DF1080904460E461746C7
S315080021800021102248461D46DDF8388000F06EFA18
S3150800219000211C22C8F80010284600F067FA3246CB
S315080021A03B462146CDF8009004F12C00FEF734FC9E
S315080021B023789A0744BF6268C8F80020DB0709D568
S315080021C004F1080304F1240253F8041B934245F86A
S315080021D0041BF9D1237840F20640002B18BF0020D3
S315080021E007B0BDE8F0834FF40D70704770B5D1E9BC
S315080021F00152AA4205D290F840302B449B1A402B34
S3150800220010D9002012E00A6890F84040D65C90F891
S3150800221041200133224402F03F02013486548B6088
S3150800222080F840408B689D42EDD8012070BD2DE9AD
S31508002230F84390F840C017469E46D1E90123089D09
S31508002240D21A6244954204460E469DF824909DF89B
S3150800225028800AD9FFF7CAFF002867D1132341F25D
S31508002260020084F84630BDE8F883754555D8002342
S3150800227094F840200AB19D4235D1D6E90121914210
S3150800228001D29D4241D89D424DD129463846D4F8BF
S315080022908820FEF713FFC4F88800B9F1000F04D0B0
S315080022A02A463946E06C00F054F8B8F1000F08D019
S315080022B094F843308BB12B463A463946A06C00F069
S315080022C037F894F8433043B1E36DA26D2B4493423B
S315080022D0E36524BF002384F84330636D41F20300AD
S315080022E02B446365BFE794F84120A25CFA5494F83E
S315080022F041200133013202F03F0284F8412094F86C
S315080023004020013A84F84020B2E73268525CFA5419
S31508002310B26801330132B260AFE741F2010013231C
S3150800232084F846309FE741F20200F8E700209AE772
S315080023301FB50C46194600F14803CDE90142009342
S3150800234000F1440200F158032030FFF7A7FD04B05E
S3150800235010BD00F00CB8014600F016B8682200213E
S3150800236000F084B90023C0E900331846704707B562
S3150800237000F128030190009300F108030020FFF7FD
S3150800238003F803B05DF804FB02460B4600F128018A
S315080023900830FFF70DB830B59FB034220021054646
S315080023A001A800F063F901A8FFF7E2FA049C012CE2
S315080023B01ED921460EA8FFF79BF818B140F205531F
S315080023C098420ED100230EAA52F8041B481C0AD1C3
S315080023D01EAA02EB8303214643F8405C0EA8FFF7CA
S315080023E019F91FB030BDA94205D001339C42EBD183
S315080023F040F20250F5E740F20350F2E7FFF776B9EC
S3150800240001221A7070471FB50023CDE90033CDE9C4
S315080024100213D0F83032044693B9D0E98A329A4288
S315080024200ED26946FFF7EEF9D4F8300298B141F2B8
S31508002430070240F20123904208BF184604B010BDB7
S31508002440A3785BB140F2022040F20323E278002A27
S3150800245018BF1846F2E740F20120EFE740F20220E3
S31508002460ECE737B50C46054611462046FFF74BFE06
S3150800247048B969462846FFF78BF920B9019BC4F885
S315080024802452C4F8283203B030BD38B500F5DE72E0
S3150800249004460D46202300F5AA712C30FEF782FA71
S315080024A0D4F830321BB9D4E98A329A4203D3A078D9
S315080024B000B1E07838BD29462046FFF7A3F9EFE7D3
S315080024C038B50C4611460546FFF7D4FA28B1294611
S315080024D0204600F0BEF8002038BD40F20240FBE777
S315080024E038B50D4611460446FFF7C4FA80B940F2DE
S315080024F0024016E0E158013114D104339A42F9D862
S31508002500AB0707D1022329462046FEF767F905E0FF
S315080025100023F3E729462046FEF788F90028E6D087
S31508002520002038BD40F20340FBE70220704738B56B
S3150800253041EA0003C3F30C0304460D469BB9FFF7B3
S3150800254099FA48B12544204604F50054FEF738F9AF
S31508002550AC4204D00028F6D140F2024038BD00282B
S31508002560FAD00020FAE740F20440F7E74FF0984324
S315080025705A6CD202FCD5586D00F470207047436837
S3150800258013B9416070475B685A68012AFBD15960E4
S315080025907047836813B9816070475B685A68012A77
S315080025A0FBD159607047C369032B9FBF00EB8302B9
S315080025B00133D160C3617047C369042B15D84FF046
S315080025C09842116CC902FCD504339B001365016857
S315080025D0103B116041680C30116050F8041C03442C
S315080025E011604FF09842984200D1704750F8041B8A
S315080025F01160F8E72422002100F038B870B51546B6
S315080026000E4624220021044600F030F825F0400347
S31508002610802B02D0B5F5807F08D12046314640F898
S31508002620045BEA0800F015F8002070BD6FF01F0083
S31508002630FBE70139024410B5904201D1002005E0BC
S31508002640037811F8014FA34201D0181B10BD0130C1
S31508002650F2E70A44431E914200D1704710B511F8BB
S31508002660014B914203F8014FF9D110BD02440346CC
S31508002670934200D1704703F8011BF9E7F8B500BF8C
S31508002680F8BC08BC9E467047F8B500BFF8BC08BC45
S315080026909E467047B814B6F1E0CFF3ADB7DD25C94D
S315080026A0FA79B7130000000007B0CD5E02000000FB
S315080026B002000302BC280000006000080000180899
S315080026C0F0040100F7200008FB200008F5020008C6
S315080026D00721000837210008302800087121000862
S315080026E0E7210008000000005D0500085505000800
S315080026F013B779FAC925DDB7ADF3CFE0F1B614B84B
S315080027000102000002000000B8280008400000008E
S3150800271002000302000000000000000000000000A4
S31508002720000000000000000000000000000000009B
S31508002730000000000000000000000000000000008B
S31508002740EB17A6030201000003000000FA0606FACA
S315080027500F04000003000000F40A0AF4050500004F
S3150800276001000000EB17A65E0A0600000100000043
S31508002770F50909F50307000001000000F60808F648
S315080027800608000000000000FE0101FE080800001F
S3150800279000000000FD0303FD0C0800000000000017
S315080027A0F90707F91009000002000000F30B0BF304
S315080027B0110A000003000000F70A0AF7120B0000CE
S315080027C003000000FC0404FC0D0C000003000000DC
S315080027D06A09E667BB67AE853C6EF372A54FF53AA4
S315080027E0510E527F9B05688C1F83D9AB5BE0CD19D0
S315080027F0800000000000000000000000000000004B
S3150800280000000000000000000000000000000000BA
S3150800281000000000000000000000000000000000AA
S31508002820000000000000000000000000000000009A
S31508002830000100007119000891170008C117000867
S31508002840091900084D19000815160008F1140008A2
S315080028509723000863240008072400088118000845
S31508002860C91A0008C1240008E12400082F25000819
S315080028702B2500081002030028000000280000008D
S3150800288000200000000018000000000004000000FE
S3150800289000000040010000000100000000000C08D4
S315080028A000400B00B02800081010002002000000AD
S311080028B095010008710100083933E6DFC5
S503028C6E
S70500000000FA
